:020000040800F2
:1000000090EC012045020008B9160108B9E000088B
:100010008D16010859590008B5E1010800000000DB
:100020000000000000000000000000009D0100082A
:10003000CD88000800000000E10100086D8801087B
:100040005F0200085F0200085F0200085F0200080C
:100050005F0200085F0200085F0200085F020008FC
:100060005F0200085F0200085F0200085F020008EC
:100070005F0200085F0200085F02000801850008B7
:100080005F0200085F0200085F0200085F020008CC
:100090005F0200085F0200085F0200085F020008BC
:1000A0005F0200085F0200085F0200085F020008AC
:1000B000ED880108F58801085F0200085F0200086A
:1000C0005F0200085F0200085F0200085F0200088C
:1000D0005F0200085F0200085F0200085F0200087C
:1000E00049B30008B12A01085F0200085F02000856
:1000F0005F0200085F0200085F0200085F0200085C
:100100005F020008153301085F0200085F02000863
:100110005F0200085F0200085F0200085F0200083B
:100120005F020008398500085F0200085D8500084D
:100130005F02000889AB00085F0200085F02000848
:100140005F0200085F0200085F020008B1190108A1
:100150005F0200085F0200085F0200085F020008FB
:100160005F0200085F020008D1190108C1190108E7
:100170005F020008E11901085F0200085F02000841
:100180005F0200085F020008DFF80CD001F098FB66
:10019000004800471DF8030890EC0120234B196824
:1001A0000868B0E8F04F80F309884FF0000080F352
:1001B000118870470000000003480068006880F361
:1001C000088862B600DF00BF08ED00E0DFF80C0031
:1001D000016841F470010160704700BF88ED00E0E4
:1001E000EFF30980114B1A681EF0100F08BF20EDC5
:1001F000108A20E9F04F106008B54FF0BF0080F37F
:1002000011884AF0E5F84FF0000080F31188BDE84E
:10021000084019680868B0E8F04F1EF0100F08BFDA
:10022000B0EC108A80F30988704700BF980A00205C
:100230004FF0BF0080F3118870474FF0000080F34B
:10024000118870470648804706480047FEE7FEE7EA
:10025000FEE7FEE7FEE7FEE7FEE7FEE7FEE7FEE776
:1002600085880108890100082DE9F04F82B001F16D
:10027000040CCDF804C00091D2E90014D2E902C9FF
:100280008E1000994FEAAC08DDF804C0D2F810A037
:10029000A710B1F90020B1F902B0DCE9001400BFE9
:1002A000B0F900504FEA054C56FB0CFC4FEA024EE9
:1002B00057FB0EFEF4444FEA0B4B58FB0BFBE34499
:1002C00089FB01EC8AFB04E4A4440BEB8C0C934601
:1002D0002A460C4661460CF500654FEA051C4FEABC
:1002E0002C1EAE451CBF6FF0004C8CEAE57C4FEA3B
:1002F0002C4CA0F800C0DDF82CC05B1E00EB4C00BD
:10030000CED1009802800098A0F802B00198016058
:100310000198446002B0BDE8F08F70B50304951CED
:10032000B3FA83F35B1EC3F10E03C3F10E04A040C6
:1003300000B200244FF4804610E010FB00F00014DF
:1003400040005B0000B21BB2B04202DB5B1C1BB280
:1003500001E0400000B2C0F30E00641CAC42ECDBD4
:10036000921C9140581A46F2540110FB01F0801380
:1003700000B270BD0B684FF4804219B2914200DAAE
:100380000A4603600020704700680860002070473C
:1003900030B50224C4F1020202EB420300EB8302F7
:1003A00001EB8303641E1D8815805D8855805D68A0
:1003B00055609B689360EDD130BD4FF48071016052
:1003C0004FF0FF310181203002220023C2F10201EF
:1003D00001EB410100EB8101521E0B804B804B6011
:1003E0008B60F3D1704730B521B30022FF4B53F837
:1003F00022408C4202D3521C092AF8DB52B103EB93
:10040000820553F8224055F8045C0C1B691A8C4293
:1004100000D3521E53F82210816602EB8211F44A77
:1004200002EB410141604FF480710160FFF7C5FFAD
:10043000002030BD6FF0010030BDF0B547F6FF740D
:10044000059F914203D1002018803C80F0BD101A16
:10045000A2EB010511D0B0FA80F1491EB5FA85F280
:10046000521E8E1A761E88404014954029140004AE
:10047000B0EB014F03DB204610E00021EEE70A0459
:100480000021401055100A4649004000A84201DBF7
:10049000401B491C521C0F2AF6DB08B21880002EA4
:1004A00001DB30410CE00104724201FA02F040FA33
:1004B00002F28A4203D06FF0004080EAE17000143B
:1004C000188080B2201A3880F0BD2DE9FE4F03005D
:1004D0000C4616464FF0020004D00822114618467A
:1004E000FFF71BFFC3490025884200DD01464FF49A
:1004F0001050814200DA0846BD49303900E06D1CD9
:1005000031F91520824201DA0C2DF8DBF5B36F1EAC
:1005100002AB009331F9152031F9171001ABFFF749
:100520008CFFB34B05EB850107EB870006EB41021F
:10053000143BDFF8C48206EB40004FF0050C0121AC
:10054000C8F80810D8F800506D1CF9D10521C8F87A
:100550000010BDF904A0BDF9089002CBD8F80050F6
:10056000C8F80050D8F800506940C8F8001030F9B9
:10057000026B0AFB06F532F9026B6F0009FB06F508
:1005800007EB450501EBE50102C400E004E0BCF126
:10059000010CE2D1BDE8FE8F0027B9E72DE9F0415B
:1005A00086B004461E46DDE90C0702AB0D469046B8
:1005B000009301AB3A460021FFF73FFF03AB0093E6
:1005C00004AB3A4600210120FFF737FF002747F62A
:1005D000FF7CB8F1010F1ED1218835F8020BBDF860
:1005E000042012FB01F1BDF8082012FB00F00844C2
:1005F00040F3CF3024F8020BBDF90400002805DADF
:10060000ADF80470ADF808C0ADF80C70761EE3D1FB
:1006100006B0BDE8F08120882A886B88BDF80410F8
:100620002D1D11FB00F0BDF8081011FB02F2024471
:1006300011FB03F1084442F3CF31218040F3CF3066
:100640006080BDF90400241D002805DAADF80470AF
:10065000ADF808C0ADF80C70761EDCD1D8E72DE9F6
:10066000FE4F04460068DDF830A08B4690461F1E02
:1006700005B27DDDB4F90800401C09D1258125872C
:10068000E066206728B204F10C016268FFF71DFFE5
:10069000B4F93800A84274D0B4F90810814251D09E
:1006A00002AB0093D4E91B2001AB0021FFF7C5FE8C
:1006B000BDF80400218910FB01F2BDF80800218F6C
:1006C00010FB01F0104440F3CF302081002122E0E4
:1006D00001EB410004EB8000BDF80430426A1B04CA
:1006E00052FB03F3BDF80860426D360452FB06F27C
:1006F0001A4452004262BDF80430826A1B0452FB65
:1007000003F3BDF80860826D360452FB06F21A440A
:100710005200491C82625945DADB002004EB80015B
:10072000BDF80430CA681B0452FB03F3BDF808602F
:10073000CA6B360452FB06F21A445200401CCA60CF
:100740000528EBDB2587284604F13C016268FFF7AA
:10075000BCFE04F1200104F15000FFF719FEB4F9CA
:100760003810B4F90800A26E00F0EEF8002101E0A4
:1007700099E006E0C4E91B014FF48061884200DA89
:10078000E166D4E91B01421A59E001205E460146A8
:10079000BBF1020F00D000214FF4807323FA01F166
:1007A000914204DC022E00D0002023FA00F2914690
:1007B00050464146724331F8023B20F8023B521E3C
:1007C000F9D1002522E005EB450004EB8001CDE9DD
:1007D0000061203108EB45004B4604F10C02FFF7A5
:1007E00043FD01990096503108E00000D4600A08EA
:1007F000405C0A0800DCFFFF003002400AEB4500C5
:100800004B4604F13C02FFF72FFD6D1CB542DADBCD
:10081000D4E91B32CDE900234B46324651464046CF
:10082000FFF7BCFE216F06FB09F601EB0900A7EB01
:1008300009010FB22067E16E08EB46080A1ABA42B6
:1008400000DB3A46002AA0D1E06EB0B1216F8142B0
:1008500013D1208F2081052504F1500104F12000DF
:10086000FFF796FDC5F1050004EB80006D1EC16B1E
:10087000C160F7D100202067E066002F13DD00255E
:1008800004F10C060CE0009005EB450004EB800140
:10089000203108EB45003B463246FFF7E5FC6D1C76
:1008A00058465D45EFDB002074E600B520B18107B6
:1008B00005D06FF0030000BD4FF0FF3000BDFFF723
:1008C0007CFD002000BD20B1820705D06FF0030041
:1008D00070474FF0FF30704785E528B121B182079E
:1008E00005D06FF0030070474FF0FF30704741E5CF
:1008F00028B121B1820705D06FF0030070474FF097
:10090000FF307047006808600020704738B51C460B
:10091000049B28B122B1850705D06FF0030038BDD4
:100920004FF0FF3038BD9D0702D06FF0040038BD96
:10093000002901DD022902DD6FF0020038BD0093BD
:100940002346FFF78CFE38BD70B5044608461546B1
:100950008C4201D1002070BD4CB34FF0080211460B
:1009600040B3FFF7DAFC0646082211462046FFF79F
:10097000D4FC301A00B2002800DA4042000455FBD3
:1009800000F21424B2FA82F12004491EB0FA80F079
:10099000401E8A401314844022B20C1A58100A3C9C
:1009A0000004B0EB024F09DB47F6FF7015E00822A8
:1009B000114600E02046FFF7B0FCDCE712040021FE
:1009C000401053100A4649004000984201DBC01A0B
:1009D000491C521C0F2AF6DB08B2002C01DB204117
:1009E00070BD6142884070BD2DE9F74F8DB00E9803
:1009F000D0E90134B0F90C10D0F800C0012CD8BFF8
:100A000001245008B4EB520FA8BF0446002BD8BFF6
:100A10000023B3EB520FA8BF03460093BCF1010FB4
:100A200008BF002012D0BCF1000F04BF00200090CE
:100A300000F00981BCF1020F08D0BCF1040F22BF05
:100A40006FF0040010B0BDE8F08F00E0009041F2BC
:100A5000435011FB00F34FEAE33000F10101A3EB37
:100A6000C13341F2F65013FB00F045F2F65C0CEB9B
:100A7000E03010FB03F04FEAE030A0F5004080B218
:100A8000491F44BF4942C84006DB8840B0F5804F4B
:100A900028BF43F6FF7002D2002808BF01200D993D
:100AA00008860D980021038E012007905FEA8030B0
:100AB000A3EB01031B1A47BF0B4403440144014449
:100AC0005B004008F4D108B20B90002301214FF0E5
:100AD0000040002A14BF4FF0100C00202BD11AE068
:100AE000002B28DA5B0003EBD0739B1A01EB40006C
:100AF000002B4FEA430303EBD073BCBF9B1A01EBFF
:100B0000400005DB934226BF9B1A01EB40004000EA
:100B1000BCF1010CE4D100FB04F8FF4F4FF0000CD6
:100B2000FE4865460446B8F1804F0EDDA44600201D
:100B30004FF0804511E05B0003EBD073934226BF7A
:100B40009B1A01EB40004000D2E7B8F1404F04DAB5
:100B5000DFF8CCC300204FF04045F24B99601E688F
:100B6000761CFBD1C3F8004057F804EBD3F800B073
:100B70004CFA06F940FA06FA84EA0B041C608EEA85
:100B80000B044545C3BF4844ACEB0A0C2D1BA0EB3E
:100B90000900DCBFD4442544761C1F2EE4DB0B9CEB
:100BA0004FEA2C4C4FEA204010FB04F04FEA60342F
:100BB000B4EB0C00A44403D5079C40426442079464
:100BC000BCF1000F04DA079CCCF1000C64420794DE
:100BD000C0030024BCF1000F0CBF002010251DD065
:100BE00043E0002C41DA640004EBD074A4EB0C0465
:100BF00001EB4000002C4FEA440404EBD074BCBF6E
:100C0000A4EB0C0401EB400006DB644526BFA4EB1B
:100C10000C0401EB400040006D1EE2D1DDF81CC069
:100C200000FB0CF0404240420FFA80F90D98A0F80A
:100C300032900E980068032822D00D9800218186FA
:100C40000E98D0F800C00D98C0F820C00D990098FB
:100C500048620E9881890D9881850E9881680D985B
:100C6000816210B00020BDE8F08F640004EBD07406
:100C7000644526BFA4EB0C0401EB40004000B9E73B
:100C80004FF000404FF0000C002A0CBF0020102451
:100C900021D031E0BCF1000F2EDA4FEA4C0C0CEB06
:100CA000D07CACEB020C01EB400000BFBCF1000FAC
:100CB0004FEA4C0C0CEBD07CBCBFACEB020C01EB54
:100CC000400006DB944526BFACEB020C01EB400074
:100CD0004000641EDED1009A8F4D504347008F487C
:100CE0004FF0000C64460246B7F1804F10DD944689
:100CF00000204FF0804413E04FEA4C0C0CEBD07C0A
:100D0000944526BFACEB020C01EB40004000CDE760
:100D1000B7F1404F04DADFF808C200204FF040443A
:100D200099601E68761CFBD11A60002155F804BB3F
:100D30001E684CFA01FA40FA01F872401A608BEA18
:100D40000602BC42C3BF5044ACEB080CA41AA0EB93
:100D50000A00DCBFC4441444491C1F29E6DB4FEAE7
:100D6000094150FB01F101EB60000D9900F50040D5
:100D70000014888664E7026A0A60426A4A60828DCB
:100D80008A81806A886070472DE9FF4F97B01A9872
:100D90000028C4BF0020129040F32781C0EBC0019F
:100DA000179800EBC10000F10408406A002864D0E5
:100DB00003287ED0DDE91821109102281A99B8F98C
:100DC000320008BF40420FFA80FCB8F9300000F54D
:100DD00080634FEAD303C0F580600FFA83F94FEACE
:100DE000500003B21CBF584203B208460129D8BFC5
:100DF0000120002427460C90002A40F3F0800C9834
:100E00004FEA0C4A401A50434FEA034BCDF81C00FE
:100E100008EB840E0C9958F82400DEF80430002901
:100E200022DD07990C9D07FB017C109901EB4C0C0E
:100E3000BCF90010A3EB813353FB0AF303EB403002
:100E40004300084653FB0BF100FB09110912CE17B2
:100E5000B6EBE13F1CBFF143A1F50041ACF8001037
:100E60000CEB420C6D1EE3D148F82400241D7F1CBE
:100E7000CEF80430BA42CBDCB1E0DDE9180C1A9CA4
:100E8000051E7EDD04FB05F100234E1BA71E012C71
:100E900007BF3CF913201146F1183CF911201CBF83
:100EA00007FB05313CF91110C8E90021C8E902210E
:100EB00000E005E05B1C08F11008401EE7D18EE061
:100EC000DDF860C0CDF828C0199813901A98CDF8B5
:100ED0001880B8F93210B8F93030491C49104A422C
:100EE000C3F58061B8F83440490803F5806392B2D5
:100EF000C3F3CF0342EA044243EA01410128CCBFD5
:100F0000034601230B9313144FF0000E12B2CDF8D9
:100F100008E0BCF1000F07E0F8600A08CC76BA4D93
:100F2000348945B20030024059DD0B9C1F04201A61
:100F300000FB0CF0079008144FEA02484FEA004902
:100F40000FFA81FA0698069950F82E0001EB8E02EE
:100F50000192D2E90141D5680B9A002A2EDD079B48
:100F6000029ADDF82C6002FB0323139A02EB430381
:100F7000A1EB803BB3F900205BFB07FB0BEB0434D8
:100F800000E02CE0A5EB823B0D465BFB08F1214421
:100F900004468900104651FB09F200FB0A22121296
:100FA0004FEAE27BBBEBE23F1CBF6FEA0B02A2F50C
:100FB00000421A8003EB4C03761ED9D1069A42F800
:100FC0002E0001980EF1040E446001988160019892
:100FD000C56002980A99401C02908142B2DC1298C6
:100FE000401C12900528FFF6D9AE1BB00020BDE8CA
:100FF000F08F70B50D46040004BF4FF0FF3070BD98
:1010000014F0030F1CBF6FF0050070BD20464FF4B5
:101010008E7100F0C5F8002D0EBF6FF001000020AA
:10102000256070BD002812BF00294FF0FF307047C7
:1010300010F0030F1CBF6FF005007047062A24BF95
:101040006FF002007047C2EBC202036800EBC200FF
:10105000001D1A46C8E4002812BF00294FF0FF30D7
:10106000704710F0030F1CBF6FF005007047062A91
:1010700024BF6FF002007047C2EBC20200EBC20057
:10108000426A0A60826A4A60028E8A81C06A886007
:1010900000207047002804BF4FF0FF30704710F069
:1010A000030F1CBF6FF005007047062924BF6FF0C7
:1010B0000200704730B4C1EBC10100EBC100041D58
:1010C00007200121002284460B46E261C51A5B1C01
:1010D00044F82520C51A5B1C891C44F8252061456D
:1010E000F4DB30BC00207047002812BF002A4FF00C
:1010F000FF30704710F0030F1CBF6FF00500704702
:10110000032924BF6FF0030070473DE62DE9F05F2F
:101110000546002092469B46884606468146402466
:101120001BE0284641464746224600F0FAFA53465D
:101130005A46C01A914110D311461846224600F073
:10114000E1FA2D1A67EB01084F46224601200021E3
:1011500000F0D8FA17EB00094E41201EA4F101045B
:10116000DFDC484631462A464346BDE8F09F40EA68
:1011700001039B0703D009E008C9121F08C0042A15
:10118000FAD203E011F8013B00F8013B521EF9D2FC
:101190007047D2B201E000F8012B491EFBD2704724
:1011A0000022F6E710B513460A4604461946FFF733
:1011B000F0FF204610BD421E12F8013F002BFBD16C
:1011C00011F8013B02F8013B002BF9D1704730B513
:1011D00005462A460B4612F8010B13F8014B08B1DD
:1011E000A042F8D01CB1002802D06D1CF1E72846BF
:1011F00030BD10B5044604E00B7800F8013B03B1A4
:10120000491C521EF8D2204610BD421C10F8011B8A
:101210000029FBD1801A704710B5002200E0521C53
:10122000835C8C5CA34201D1002BF8D1D8B2E1B22F
:10123000401A10BD10B5044600E0401C0378002B96
:10124000FBD100E0401C521E04D311F8013B037097
:10125000002BF7D100210170204610BD034611F884
:10126000012B00F8012B002AF9D11846704730B540
:1012700005460020034600E05B1C934205D2EC5C6F
:10128000C85C201A01D1002CF6D130BD0246C9B28B
:1012900000E0401C0378002BFBD102E003788B4276
:1012A00003D0401E9042F9D2002070472DE9FE4F36
:1012B000804681EA0300C00F0C46009021F00041F7
:1012C00023F00045B8EB0200A94105D24046214673
:1012D00090461C460B46024623F00040104304D1C2
:1012E0004046214603B0BDE8F08F270DC7F30A0042
:1012F000C3F30A510290401A0190402866DAC3F302
:10130000130040F4801B0098924620B10023D2EBDA
:10131000030A63EB0B0B01985946C0F1400250469B
:1013200000F0F0F906460D4650465946019A00F085
:1013300008FA10EB08006141002487EA115284EAA0
:10134000E7731A433BD0009A3AB3019A012A4FEA55
:10135000075210DC001B61EB02014FF0004202EA71
:101360000752CDE90042001C41F5801132462B4660
:1013700000F03CFAB6E7001B61EB0201001C41F5EE
:10138000801300185B412018A2F5001747EB0301FA
:1013900040EAD570B6196D4111E06D084FEA360686
:1013A00045EAC0754FEA0752001B61EB0201001CC1
:1013B00041F5801149084FEA300000195141324689
:1013C0002B4603B0BDE8F04F00F003BA00980122AD
:1013D00040000023D0EB020263EBE073009821464B
:1013E0004FEAE074B8EB000061EB0401E9E783F039
:1013F00000435BE781F0004158E72DE9FE4F81EAA9
:10140000030404F0004421F0004100944FF0000B6D
:1014100023F0004350EA010402D052EA030404D14D
:101420000020014603B0BDE8F08FC3F30A54C1F3B6
:101430000A552C44A4F2F3340194A0FB0254C1F3E6
:10144000130141F48011C3F3130343F4801301FB30
:10145000024400FB034E840A970A44EA815447EA97
:101460008357A4FB076802958D0A05FB07854FEAA1
:10147000932C04FB0C542705029D4FEA065847EABB
:101480001637B5EB08056EEB070C870E920E47EA90
:10149000811742EA8312A7FB0201B6EB0B0164EB52
:1014A00000042B0D43EA0C335E1844EB1C50DA4663
:1014B0005146E7FB0201C5F313044FEA0B3343EA3D
:1014C00014534FEA0432019C43EA0603A4F10C04CE
:1014D0000294009CCDE900B400F088F9A2E72DE960
:1014E000F04D81EA030404F0004B21F0004514465E
:1014F0004FF0000A23F0004150EA050220D054EAE0
:1015000001021DD0C5F30A570246C5F31303C1F308
:101510001300C1F30A5640F4801543F48013A7EB7F
:101520000608101BD64608F2FD3873EB050002D3FF
:1015300008F1010801E092185B41B8F1000F03DAED
:1015400000200146BDE8F08D00204FF480110646D2
:1015500084460EE0171B73EB050705D3121B63EBE4
:10156000050306434CEA010C49084FEA3000921883
:101570005B4150EA0107EDD152EA030012D082EA42
:10158000040083EA0501084303D100224FF0004321
:1015900008E0101BAB4102D20122002302E06FF0F1
:1015A000010253101AEB06004CEB085110EB0A0035
:1015B00041EB0B01BDE8F04D00F00BB90EB5C10FCA
:1015C00080EAE0700844CA07002140F233438DE806
:1015D0000E000A460B4600F009F903B000BD0EB537
:1015E00040F2334102910021CDE900110A460B4639
:1015F00000F0FCF803B000BDC1F30A5210B5C1F30E
:10160000130140F2FF3341F480119A4201DA0020C5
:1016100010BD40F233439A42A2F2334203DC5242FD
:1016200000F07FF810BD904010BD00F0004230F097
:1016300000400AD0C10D01F56071C0F3160042EA06
:101640000151C2084007114370470020014670470E
:1016500030B5002904DB4FF00044404264EB010147
:10166000002B04DB4FF00044524264EB03038B4237
:1016700008BF824230BD000030B5002904DB4FF0C6
:101680000044404264EB0101002B04DB4FF00044B6
:10169000524264EB0303994208BF904230BD000000
:1016A00001F0004330B421F0004150EA010206D0BD
:1016B0000A0DA2F56072C1F31301002A02DC30BCEE
:1016C00000207047440F44EAC104C100E01830BC58
:1016D00000EBC25000F047B830B50B460146002081
:1016E0002022012409E021FA02F59D4205D303FAE4
:1016F00002F5491B04FA02F52844151EA2F1010265
:10170000F1DC30BD202A04DB203A00FA02F100208F
:1017100070479140C2F1200320FA03F3194390402F
:101720007047202A04DB203A21FA02F0002170479A
:1017300021FA02F3D040C2F1200291400843194639
:101740007047202A06DBCB17203A41FA02F043EA21
:10175000E07306E041FA02F3D040C2F1200291406A
:101760000843194670470029A8BF7047401C49002C
:1017700008BF20F00100704710B4B0FA80FC00FAF6
:101780000CF050EA010404BF10BC704749B1CCF121
:10179000200421FA04F411FA0CF118BF01212143AD
:1017A0000843A3EB0C01CB1D0106000A002BBEBFB2
:1017B000002010BC704700EBC35010440029A4BFA8
:1017C00010BC7047401C490008BF20F0010010BC4D
:1017D000704710B5002B08DA401C41F10001921847
:1017E0005B411A4301D120F0010010BD2DE9F04DFD
:1017F00092469B4611B1B1FA81F202E0B0FA80F252
:1018000020329046FFF77EFF04460F4640EA0A006A
:1018100041EA0B0153465A46084303D12046394654
:10182000BDE8F08D114653EA010015D0C8F1400221
:101830005046FFF776FF05460E465046594642464B
:10184000FFF760FF084301D0012000E000200543BE
:1018500046EAE0762C4337430A984FEA4453A0EB1C
:1018600008004FEAD4240A304FF0000244EA4754FB
:101870004FEAD72502D500200146D1E7010510190E
:101880006941DDE9084500196941BDE8F04DA0E76F
:10189000C1F30A52C1F3130140F2FF3341F4801146
:1018A0009A4202DA00200146704740F233439A42DE
:1018B000A2F2334202DC5242FFF733BFFFF722BFEE
:1018C000064C074D06E0E06840F0010394E807008D
:1018D00098471034AC42F6D3FEF75AFC44770A0816
:1018E00064770A0870B5C1F30A5201F0004500247C
:1018F000C1F3130140F2FF3341F480119A4201DA3F
:10190000002070BD40F233439A42A2F2334203DC1E
:101910005242FFF706FF00E090402C43F1D04042D6
:1019200070BD70B58D1810F8014B14F0030201D191
:1019300010F8012B231106D110F8013B03E010F839
:10194000016B01F8016B521EF9D1B3B110F8012BF4
:1019500004F00C048A1A0C2C04D0A2EB841203F1BC
:10196000020308E010F8014BA2EB0422F7E712F89B
:10197000014B01F8014B5B1EF9D5A942D3D30020DE
:1019800070BDCA430260704721B1826842F0010213
:10199000826003E0826822F00102826070470000EA
:1019A00000210A4A11680A4A01EA0201D0E900232B
:1019B00042EA0302836842EA0302C36842EA03027E
:1019C00042EA0101034AC2F80413704704230140AC
:1019D000E030FCFF00200140002101604160816097
:1019E000C160704710B50121080210F01FFF0021EF
:1019F0004FF4807010F01AFF10BD0146C86C80B221
:101A000070470246002013680B4201D0012000E01D
:101A10000020704730B50246002000235068104C6B
:101A200020400D790C6844EA0524204350609068FA
:101A30000C4C2040D1E903542C438D682C434D7944
:101A400044EA450420439060D06A20F470000C7D85
:101A5000641EE4B2234340EA0350D06230BD00006C
:101A6000FFFEFFFCFDF7FFC0F0B504460D46002069
:101A70000021092D11DDE068A5F10A0606EB4607F5
:101A8000072606FA07F18843A5F10A0606EB460683
:101A900003FA06F10843E0600CE0206905EB450716
:101AA000072606FA07F1884305EB450603FA06F117
:101AB00008432061072A0FDA606B561E06EB860783
:101AC0001F2606FA07F18843561E06EB860605FA1E
:101AD00006F10843606322E00D2A0FDA206BD61F5F
:101AE00006EB86071F2606FA07F18843D61F06EB8A
:101AF000860605FA06F10843206310E0E06AA2F1C9
:101B00000D0606EB86071F2606FA07F18843A2F1A9
:101B10000D0606EB860605FA06F10843E062F0BD05
:101B2000816841F08041816070470021016001714E
:101B300041718160C1600161012101757047000040
:101B400010B534A134481EF007FD28B933A132483E
:101B50001EF002FD002836D03148406910B900203F
:101B60002F49C8612E48406906280FD22C494A697E
:101B70004969491C2A4B596102EB8211294A1268B2
:101B800002EB4101481C2449FFF768FB24484069E7
:101B9000012806D822484069012805D1224800685A
:101BA00010B90120214908601F48006858B1204839
:101BB00000682049086001201949886000201A49FE
:101BC000086001F09BFA02201B4908601B4800686E
:101BD00028B1002364221948006849F0A9F802F0EE
:101BE0000DFF022803D0FF20154908700AE00C48B9
:101BF000C06900EB80100B49096801EB4000407898
:101C00000F4908700A4800680A4908600120044921
:101C1000886010BD77617600045700205741560058
:101C200048020020C8020020780200207C02002028
:101C3000D0020020E00200207002002044020020B8
:101C40008802002010B5244801780078401C224A00
:101C5000107032293EDD00201146087002F0CEFEE1
:101C600001282CD11D48006860B1012802D002284B
:101C700024D104E001F0ACFD01F040FA1EE001F0D7
:101C8000E5F91BE01548C1694069401E814202D256
:101C900001F0DCF911E01148806801280DD10C2019
:101CA0000F4908600F48006828B1002364220D48DE
:101CB000006849F03DF801F08BFD00BF0AE002F03A
:101CC0009DFE022806D108480068C08A112801D16B
:101CD00001F098FF10BD0000AC0200204802002077
:101CE0007002002044020020D002002001B592B012
:101CF000002011904FF6FF700BF022F91F200BF01F
:101D0000C8F912981038052880F09A87DFE810F09B
:101D100005003F0033069B063B034FF486603DF011
:101D200031FEFE4908601021FC48006805F07AFE8B
:101D3000FA480068FA490860FA4832231A46FA4914
:101D4000009005200FF080FD1090F44803682821D2
:101D5000B920109A02F0A2F8F44B0022F4A1EF4847
:101D600000680BF03DF9F64B0122F6A1EB48006844
:101D70000BF036F9F64B0222F6A1E84800680BF0AA
:101D80002FF9F6A1E54800680BF04AF9FEE34FF49D
:101D900086603DF0F7FDF44908601121F2480068C3
:101DA00005F040FEF0480068DD490860EF49EE4864
:101DB0000068C0F82814EE49EB480068C0F82C14FD
:101DC000EC481E231A46EC49009007200FF03CFD1A
:101DD0001090E5480368B921ED20109A02F05EF8F2
:101DE000E6481E231A46E649009008200FF02CFD15
:101DF0001090DD480368B921CF20109A02F04EF808
:101E0000E0481E231A46E04900900A200FF01CFD0E
:101E10001090D5480368B921B120109A02F03EF81D
:101E2000DA481E231A46DA49009009200FF00CFD0B
:101E30001090CD480368B9217620109A02F02EF850
:101E4000D448006948B1D4481E231A46D3490090AB
:101E50000B200FF0F9FC109008E0CF481E231A4623
:101E6000CF4900900B200FF0EFFC1090BE480368A4
:101E7000B9215820109A02F011F8CA481E231A46B8
:101E8000C949009029200FF0DFFC1090B648036884
:101E9000B9219420109A02F001F8C4481E231A4672
:101EA000C34900902A200FF0CFFC1090AE48036881
:101EB000B92140F20B10109A01F0F0FFBD481E232B
:101EC0001A46BD4900900F200FF0BEFC1090A648A6
:101ED00003681E212320109A01F0E0FFB7481E235B
:101EE0001A46B74900900C200FF0AEFC10909E48A7
:101EF00003683D212320109A01F0D0FFB1481E2332
:101F00001A46B14900900C200FF09EFC10909648A4
:101F100003685C212320109A01F0C0FFAB481E2308
:101F20001A46AB4900900E200FF08EFC10908E48A0
:101F300003687B212320109A01F0B0FF95480068C8
:101F400020B101280CD002281ED113E0A1481E2385
:101F50001A46A14900900D200FF076FC10901DE06C
:101F60009C481E231A469D4900900D200FF06CFCE2
:101F7000109013E097481E231A46994900900D20AF
:101F80000FF062FC109009E092481E231A46924915
:101F900000900D200FF058FC109000BF00BF724859
:101FA00003689A212320109A01F078FF00200EF098
:101FB000FDFE4FF6FF700EF0B3FE8A4801230022AB
:101FC00089A1009021200FF0ABFC109066480368B7
:101FD0009621DC20109A01F061FF00222121624845
:101FE000006816F0A1FA00200EF0E0FE4FF6FF7038
:101FF0000EF096FE00201F2101230246CDE90010BD
:102000007AA112200FF04AFC0890574803689921E2
:1020100040F20D10089A01F041FF00201F2101231A
:102020000246CDE9001071A115200FF037FC079092
:102030004D48036899215F20079A01F02FFF6D48F2
:1020400001231A4668A1009013200FF069FC10903C
:1020500045480368232140F23110109A01F01EFF19
:102060004C48C06841B210984068C17701200021F7
:1020700003460A46CDE900105FA12E200FF00EFCAA
:10208000109039480368992140F23110109A01F0FC
:1020900005FF01204FF2DE7103460022CDE900105A
:1020A00056A12F200FF0FAFB10902F480368232130
:1020B00040F23B10109A01F0F1FE01204FF2DE7168
:1020C00003460022CDE900104DA130200FF0E6FBC1
:1020D0001090254803688E2140F23B10109A01F0C1
:1020E000DDFE1048322328224649009016200FF0CA
:1020F000ABFB10901C480368BE214FF49E70109AF1
:1021000001F0CCFE0748322328223E4900902D20C2
:102110000FF09AFB10901448036875E0CC02002081
:10212000E002002065150108103B060851B10208C5
:10213000417564696F20506C617965720000000020
:1021400041B4020853657474696E6773000000003F
:10215000853B040852657475726E000041756469B0
:102160006F204D656E750000D0020020BD950008FF
:1021700011E00108A9320008C66B0608FD3000080E
:102180004A5D06084D30000888640608D13700080B
:102190000473060848020020F52F00088081060815
:1021A000427A0608C92E000846CB0608A936000860
:1021B00008C406082D7A02083A97060881AF02087B
:1021C00084D20608913000080C560608ADB2020809
:1021D000CE4E060825360008789E0608B6A50608E5
:1021E000F4AC0608E93200082000000030303A3034
:1021F00030000000D53C0008566F6C002B0000003A
:102200002D00000032B40608BE212C20109A01F0E7
:1022100045FE00200EF0CAFD4FF6FF700EF080FD67
:1022200000200EF0C3FD00200EF07AFD002011907A
:1022300020E0012047F6FF71CDE90010FE4911981A
:1022400031F8100001230022FCA103900FF026FBBF
:102250000F901198C0EB0010293080B20390FA481B
:10226000036840F209100F9A039901F017FE1198C4
:10227000401C119011980628DBD3012047F6FF710E
:1022800003460022CDE90010F0A110200FF006FB5C
:102290000D90012047F6FF7103460022CDE90010A2
:1022A000EDA111200FF0FAFA0C90012047F6FF7112
:1022B00003460022CDE90010EAA131200FF0EEFA2A
:1022C0000B90012047F6FF7103460022CDE9001074
:1022D000E7A132200FF0E2FA0A9001214FF4FC60EE
:1022E0000B460022CDE90001E4A133200FF0D6FA1D
:1022F0000990E6480368282140F209100D9A01F080
:10230000CDFDE24803683A2140F209100C9A01F031
:10231000C5FDDE4803684C2140F209100B9A01F01C
:10232000BDFDDA4803685E2140F209100A9A01F007
:10233000B5FDD6480368702140F20910099A01F0F2
:10234000ADFD00200EF032FD4FF6FF700EF0E8FC00
:10235000AFF22421CD4800680AF062FE0221CC4889
:102360000160CC48006830B100236422C849C948E4
:10237000006848F0DDFCC848406818B10020C64934
:10238000486003E502E5C54906200EF091FF4FF4D1
:1023900086603DF0F7FAC24908601421C048006821
:1023A00005F040FBBFA1BE4800680AF039FEC148F5
:1023B0001E231A46C049009007200FF045FA1090DE
:1023C000B7480368C8212320109A01F067FDB3487D
:1023D0000078C0F3400000287ED0B84800230122D6
:1023E000AFF2FC11009008200FF09AFA1090AC4860
:1023F000036846214FF48770109A01F04FFDB048F2
:10240000B0F90C0000EB80008000039000EBD0706E
:1024100040103230C0B2024608210290A048006845
:1024200016F082F8A74800230122AFF24421009061
:1024300009200FF075FA1090994803684621E120B1
:10244000109A01F02BFD9E48B0F91C0000EB8000B3
:102450008000039000EBD07040103230C0B20246D2
:10246000092102908E48006816F05EF89648002315
:102470000122AFF28C2100900A200FF051FA109047
:10248000874803684621B420109A01F007FD8C4864
:10249000B0F92C0000EB80008000039000EBD070BE
:1024A00040103230C0B202460A2102907C480068D7
:1024B00016F03AF8854800230122AFF2D4210090AB
:1024C0000B200FF02DFA10907548036846218720E5
:1024D000109A01F0E3FC00E013E07948B0F93C0009
:1024E00000EB80008000039000EBD0704010323091
:1024F000C0B202460B2102906948006816F014F839
:1025000092E06E4801231A46AFF224310090082071
:102510000FF006FA10906248036846214FF4877066
:10252000109A01F0BBFC6648B0F90C0000EB80008B
:102530008000039000EBD07040103230C0B20246F1
:10254000082102905648006815F0EEFF5D4801230F
:102550001A46AFF26C31009009200FF0E1F91090AB
:102560004F4803684621E120109A01F097FC544837
:10257000B0F91C0000EB80008000039000EBD070ED
:1025800040103230C0B20246092100E05AE2029007
:102590004348006815F0C8FF4B4801231A46AFF2C4
:1025A000B83100900A200FF0BBF910903C48036846
:1025B0004621B420109A01F071FC4148B0F92C007A
:1025C00000EB80008000039000EBD07040103230B0
:1025D000C0B202460A2102903148006815F0A4FFFB
:1025E0003A4801231A46AFF2004100900B200FF049
:1025F00097F910902A48036846218720109A01F025
:102600004DFC2F48B0F93C0000EB800080000390A7
:1026100000EBD07040103230C0B202460B21029065
:102620001F48006815F080FF1C48007810F0010F6B
:102630006DD0274800234DE0C2D906082020202075
:102640002020202020202000E00200205469746C0B
:10265000653A202000000000416C62756D3A202030
:10266000000000004172746973743A200000000099
:1026700047656E72653A20200000000053616D705E
:102680006C6520526174653A20200000D002002061
:10269000700200204402002048020020E4020020D2
:1026A000D8020020417564696F20457175616C69BD
:1026B0007A657200FD3604083A970608E92D00088D
:1026C000086E0020212E0008592E0008912E0008C7
:1026D0006D2F00080122AFF2F04100900C200FF0A6
:1026E0001FF91090FE48036846214B20109A01F014
:1026F000D5FB0EA90C200EF0DBFD0E98C0B20246F1
:102700000C210390F648006815F00EFF1DE0F54817
:1027100001231A46AFF2305100900C200FF000F95F
:102720001090EF48036846214B20109A01F0B6FB49
:102730000EA90C200EF0BCFD0E98C0B202460C2172
:102740000390E748006815F0EFFE012100200B46DA
:102750000246CDE90001E4A10D200FF09FF8109092
:10276000DF48036823214FF49670109A01F096FB1E
:10277000012100200B460246CDE90001E0A10D2019
:102780000FF08CF81090D648036823219120109AFE
:1027900001F084FB0120002103460A46CDE9001028
:1027A000DCA10E200FF07AF81090CD480368462186
:1027B0004FF49B70109A01F071FB012100200B4631
:1027C0000246CDE90001D5A10F200FF067F8109067
:1027D000C34803685F214FF49B70109A01F05EFBC1
:1027E000012100200B460246CDE90001CDA11020B9
:1027F0000FF054F81090BA48036878214FF49B709A
:10280000109A01F04BFB0120002103460A46CDE956
:102810000010C6A111200FF041F81090B0480368D5
:1028200091214FF49F70109A01F038FB0120002194
:1028300003460A46CDE90010BEA112200FF02EF883
:102840001090A7480368AA214FF49F70109A01F0D6
:1028500025FB0120002103460A46CDE90010B7A15F
:1028600013200FF01BF810909D480368C32140F21D
:102870001310109A01F012FB0120002103460A46B2
:10288000CDE90010AFA114200FF008F81090944883
:102890000368C321E620109A01F000FB012000210B
:1028A00003460A46CDE90010A8A115200EF0F6FF58
:1028B00010908B480368C321B920109A01F0EEFAFA
:1028C000012100200B460246CDE90001A1A11620FE
:1028D0000EF0E4FF109082480368C3218C20109A08
:1028E00001F0DCFA012100200B460246CDE900018F
:1028F0009AA14D200EF0D2FF10907948036846212E
:102900003220109A01F0CAFA012100200B4602463B
:10291000CDE9000192A118200EF0C0FF1090704880
:10292000036878213220109A01F0B8FA01210020C2
:102930000B460246CDE900018AA119200EF0AEFF38
:10294000109067480368AA213220109A01F0A6FA75
:10295000012100200B460246CDE9000182A11A2088
:102960000EF09CFF10905E480368C3215020109A1F
:1029700001F094FA68E14FF486603DF003F87C4979
:10298000086012217A48006805F04CF87848006821
:1029900078490860784832231A4678490090052023
:1029A0000EF052FF1090724803682821B920109A47
:1029B00001F074FA724A73A101200EF0C5FE069070
:1029C0006B480368D421B920069A01F067FA6A4B74
:1029D00001226EA10D200EF0E7FE109064480368FE
:1029E0007421E620109A01F059FA634B01226CA180
:1029F0000E200EF0D9FE10905D4803688A21E62073
:102A0000109A01F04BFA6BA1594800680AF008FBD4
:102A10006E4906200EF04CFC6C48007800F0010076
:102A200002460E210390524800680AF08FFA674868
:102A30000078C0F3400002460D2103904C48006826
:102A40000AF084FA00E14FF486603CF09BFF604995
:102A5000086013215E48006804F0E4FF5D4A49A164
:102A600002200EF071FE069059480368D421B92067
:102A7000069A01F013FA404832231A46564900904C
:102A800003200EF0E1FE0490514803682821B9208C
:102A9000049A01F003FA51A14D4800680AF0C0FA07
:102AA0000120002103460A46CDE9001051A104206F
:102AB0000EF0F4FE05904648036864214FF49B70C5
:102AC000059A01F0EBF90120002103460A46CDE901
:102AD000001053A105200EF0E1FE05903C48A7E050
:102AE000D80200206D2F0008202020202020202048
:102AF000202020457175616C697A657200000000C4
:102B00002020202020202020204C6F75646E6573CB
:102B1000730000003520644200000000322064424F
:102B20000000000030206442000000002D322064CC
:102B3000420000002D35206442000000314B487AED
:102B400000000000334B487A0000000031324B484F
:102B50007A00000031384B487A0000004D6178005F
:102B6000203000004D696E004761696E0000000072
:102B7000DC020020E002002065150108103B060879
:102B8000D938040820204F4B2020000020446973CE
:102B900061626C6520457175616C697A65720000CF
:102BA0002044697361626C65204C6F75646E657357
:102BB00073000000417564696F20506C6179657223
:102BC0002053657474696E6773000000E40200208E
:102BD000D402002029370408363805084175646995
:102BE0006F20506C61796572203A204572726F7265
:102BF000000000005468652073656C65637465644B
:102C000020617564696F2066696C6520646F657307
:102C1000206E6F74206578697374206F72000000F5
:102C2000697320636F72727570746564202100008F
:102C3000036871214FF49B70059A01F02FF903E0AE
:102C400000210348016000BF00BF13B000BD0000B9
:102C5000E0020020F0B589B004460E461746002574
:102C600014224DA104A8FEF782FA30784F4908706B
:102C70004F4807604F4804600021E26900689047B0
:102C80004D48406890B1FEF75BFF1120FFF72EF82A
:102C90004A48006810F0C8F8484800684849086089
:102CA0000020454948600120886072E001F0A6FEDE
:102CB00008B100F08DFD434906200EF0F9FA00201E
:102CC0003D4908604860012088603E480068C0F3C4
:102CD0000F10C86000200861012048618861002051
:102CE000C86138480078C0F3400008623548007871
:102CF00000F0010048620020334908603349086051
:102D00004FF444703CF03EFE314908603146304893
:102D10000068401CFEF7A2FA01250AE005EB8511C8
:102D20002B4A126802EB4101481C04A9FEF796FAEF
:102D30006D1C062DF2D32048806801280AD111208D
:102D4000FEF7D4FF1D48006810F06EF81B480068BD
:102D50001B49086001F076FE1E48006830B9002269
:102D600001210A2047F0FEFE1A4908601A4800684F
:102D700068B90020184A0323CDE90120009303908D
:102D800003464FF4807215A1164848F097F800F0FA
:102D9000B5F909B0F0BD000020202020202020201F
:102DA0002020202020202020200000008802002059
:102DB000840200203C02002048020020D0020020B3
:102DC000E0020020E40200207002002078020020CF
:102DD000C80200204402002040020020415544491E
:102DE0004F5F47000148000810B50A480078C0F35B
:102DF000400068B90821084800680BF06FF80446E5
:102E00002146002001F0D4FB044908200EF0E6FB27
:102E100010BD0000E4020020D8020020146E002043
:102E200010B50A480078C0F3400068B90921084885
:102E300000680BF053F804462146012001F0B8FB6E
:102E4000044909200EF0CAFB10BD0000E402002076
:102E5000D8020020246E002010B50A480078C0F384
:102E6000400068B90A21084800680BF037F80446AA
:102E70002146022001F09CFB04490A200EF0AEFB23
:102E800010BD0000E4020020D8020020346E0020B3
:102E900010B50A480078C0F3400068B90B21084813
:102EA00000680BF01BF804462146032001F080FB6C
:102EB00004490B200EF092FB10BD0000E40200203C
:102EC000D8020020446E00207CB5224800682249C8
:102ED0000968884200D07CBD20488068012836D12E
:102EE00001F08CFD98B301F089FD04282FD06946CC
:102EF00001A801F089FD01F0A1FF642046F096FFD2
:102F00000A20174908601748006828B10023642286
:102F10001448006847F00CFF642100984843019969
:102F2000B0FBF1F0441D642C00D305240E48067C50
:102F300001F05EFD6421B0FBF1F0604366F3000038
:102F4000054602F019F80021084601F097FF00BF7E
:102F5000C1E70000E0020020D0020020480200206B
:102F60007002002044020020889B002010B50B480E
:102F7000007810F0010F0FD10C21094800680AF009
:102F8000ADFF084908600846008800B201F032FB36
:102F900004490C200EF022FB10BD0000E4020020CA
:102FA000D8020020BC02002010B504460D4800786D
:102FB000A04216D1002001F0E9FF0B480068C08A4A
:102FC000112802D00948406810B140F0CDFB08E05C
:102FD00007480068C08A142803D140F08FFB40F0F6
:102FE000C3FB10BD88020020D00200204802002050
:102FF000D802002010B51248006908B9012000E08D
:1030000000200F4908610846006918B1002001F04E
:10301000EFFF04E00A49C968C8B201F0E9FF0848B7
:10302000806801280BD10E20064908600648006818
:1030300028B1002364220448006847F079FE10BDDF
:1030400048020020700200204402002010B500F069
:10305000BFFB00BF0D48C1694069401E814205D2D7
:103060000A48C069401C0949C86108E0074800686F
:10307000022803D100200549C86100E010BD00F01E
:10308000AFF80028E6DB00BFF8E7000048020020A8
:1030900010B50948806801280DD1002006498860D4
:1030A000064908600448806982B2054B0221054840
:1030B000006808F0E3FF10BD48020020E002002095
:1030C000411B0008D002002010B509488068012883
:1030D0000BD10B20074908600748006828B100237E
:1030E00064220548006847F023FE01F0A7FE10BDEA
:1030F00048020020700200204402002010B52F4832
:103100008068012808D12D48406928B9FFF7C0FF21
:1031100001202B49086010BD2848006908B100242F
:1031200002E02648C06884B22448C06900EB8010E1
:103130002449096801EB40004078234908701F4981
:10314000C96901EB81111F4A126802EB4101481C59
:10315000214601F093FE60B118488068012807D12C
:1031600000201A49086013211948006800F07CFB10
:10317000D1E718480068C0F30F101049C86008462E
:103180008068012817D1022013490860134800689D
:1031900028B1002364221148006847F0C9FD0A20C5
:1031A0000D4908600D48006828B1002364220B48CF
:1031B000006847F0BDFD00BFADE7000048020020F9
:1031C00078020020C802002088020020E0020020CF
:1031D000D0020020E40200207002002044020020FF
:1031E00010B52B48006908B1002402E02848C068E7
:1031F00084B22748C06900EB80102649096801EBBA
:1032000040004078244908702149C96901EB8111C7
:10321000204A126802EB4101481C214601F02EFEB3
:1032200090B11B48806801280BD102201B4908601F
:103230001B48006828B1002364221948006847F041
:1032400077FD4FF0FF3010BD16480068C0F30F1037
:103250000F49C86008468068012817D102200F492D
:1032600008600F48006828B1002364220C480068F9
:1032700047F05EFD0A20094908600948006828B146
:10328000002364220648006847F052FD0020DAE778
:1032900048020020C802002088020020700200209E
:1032A00044020020E402002010B500F091FA00BFB3
:1032B0000C48C06928B10B48C069401E0949C86163
:1032C0000AE008480068022805D106484069401E07
:1032D0000449C86100E010BDFFF782FF0028E7DB6A
:1032E00000BFF8E74802002070B531480068314956
:1032F0000968884200D070BD2F488068012854D1E9
:1033000001F07CFB022830D101F098FD642046F0EA
:103310008DFD0A20294908602948006828B100234A
:1033200064222748006847F003FD212121480068F6
:103330000AF0D4FD2349086008460068632801D3D9
:10334000052008602048057C01F052FB6421B0FB99
:10335000F1F01C490968484365F30000044601F098
:103360000BFE0021084601F089FD01F047FB032810
:103370001BD121210F4800680AF0B0FD11490860F7
:1033800008460068632801D3052008600E48057CC4
:1033900001F02EFB6421B0FBF1F00A4909684843B3
:1033A00065F30000044601F0E7FD00BFA3E700005D
:1033B000E0020020D002002048020020700200201D
:1033C00044020020A8020020889B002038B5054652
:1033D0008448006884490968884200D038BDA5F156
:1033E0000A0005287ED2DFE800F003234363B7001C
:1033F00008217D48006805F003FC08217A48006830
:103400000FF01EFD79481E231A46794900900820C6
:103410000EF01AFA044674482246B9210368CF20F8
:1034200000F03CFD0821704800680FF009FDCBE07A
:1034300008216D48006805F0E3FB08216A48006830
:103440000FF0FEFC6B481E231A466B4900900820C3
:103450000EF0FAF9044664482246B9210368CF20E9
:1034600000F01CFD0821604800680FF0E9FCABE0AB
:1034700008215D48006805F0C3FB08215A48006830
:103480000FF0DEFC5B481E231A465B4900900820C3
:103490000EF0DAF9044654482246B9210368CF20D9
:1034A00000F0FCFC0821504800680FF0C9FC8BE0DC
:1034B000524800685249096888424CD04F48006819
:1034C0004F4908600D214848006805F099FB0D211F
:1034D000454800680FF0B4FC4848006830B1012846
:1034E0000ED000E06FE002281ED113E045481E23F5
:1034F0001A46454900900D200EF0A6F904461DE03D
:1035000040481E231A46414900900D200EF09CF9B8
:10351000044613E03B481E231A463D4900900D2007
:103520000EF092F9044609E036481E231A46364941
:1035300000900D200EF088F9044600BF00BF2A4815
:1035400022469A210368232000F0A8FC0D2126487A
:1035500000680FF075FC37E0284800692D490968BC
:1035600088422FD0254800692A4908600B211E484F
:10357000006805F045FB0B211B4800680FF060FC5C
:103580001E48006948B124481E231A46234900906A
:103590000B200EF059F9044608E01F481E231A4676
:1035A0001F4900900B200EF04FF904460E482246AA
:1035B000B9210368582000F071FC0B210A4800680B
:1035C0000FF03EFC00E000BF00BF1321064800687A
:1035D0000AF084FC0949C968884201D000F07AFBEE
:1035E00000BFFBE6E0020020D0020020C930000846
:1035F000FC8F0608FD3000084A5D060848020020DE
:10360000C002002025360008789E0608B6A50608E8
:10361000F4AC0608C4020020F52F000880810608DB
:10362000427A060810B51C48006820B1012806D06F
:1036300002280CD107E00120174908600BE00220A6
:103640001549086007E000201349086003E00020E6
:103650001149086000BF00BF104906200DF028FE88
:103660000D4801680D48006861F383000B4908604C
:1036700006200DF0B3FF0848806801280BD10D200B
:10368000074908600748006828B1002364220548FC
:10369000006847F04DFB10BD48020020E402002006
:1036A00070020020440200207CB5224800682249B4
:1036B0000968884200D07CBD20488068012836D146
:1036C00001F09CF998B301F099F904282FD06946CC
:1036D00001A801F099F901F0B1FB642046F0A6FBC6
:1036E0000A20174908601748006828B1002364229F
:1036F0001448006847F01CFB642100984843019976
:10370000B0FBF1F0441F642C00D305240E48067C66
:1037100001F06EF96421B0FBF1F0604366F3000044
:10372000054601F029FC0021084601F0A7FB00BF77
:10373000C1E70000E0020020D00200204802002083
:103740007002002044020020889B002010B517481A
:10375000006846F0FBFD16484068C8B111211548C5
:10376000006800F081F8144800681449086001F00E
:1037700045F902280BD10A20114908601148006858
:1037800028B1002364220F48006847F0D1FA10BD29
:10379000FF200D49087010210648006800F064F809
:1037A00000200A49086000BFF1E70000B4000020D3
:1037B00048020020B0000020D0020020E0020020DB
:1037C00070020020440200208802002074020020C1
:1037D0001CB501F0E1FB01F05BF81C488068012892
:1037E00022D11B480068C08A11281DD100231A4627
:1037F00018A168461AF02AFE6A4612211448006889
:103800000FF003FB6A461521114800680FF0FDFA1E
:10381000002221210E48006814F086FE20B12121EB
:103820000B4800680FF00CFB0848806801280BD19A
:103830000C200B4908600B48006828B10023642263
:103840000848006847F074FA1CBD000048020020D8
:10385000D0020020253032643A2530326400000066
:10386000700200204402002070B505460C46002678
:1038700000212846EA699047284605F0F9F82846CD
:1038800026F0A4F80025FF2C02D109F061FC70BDE0
:10389000E0B2FEF72BFAA4F11000052813D2DFE8FE
:1038A00000F003060C0F09000A4806680CE00A48FD
:1038B000066809E00948066806E00948066803E06A
:1038C0000848066800E000BF00BF30460FF0ACFAC1
:1038D00000BFDCE7CC020020D0020020D80200208C
:1038E000DC020020D402002070B50546002441F21D
:1038F0005326A9480068A949096888427ED1022D4B
:10390000FCD101F071F8A64908600846006800285B
:1039100074D04FF2DE700DF049FAD22364224FF4D6
:103920008771232009F09EFA00200DF03FFAD02382
:10393000622240F20D11242009F0B6FA99A19B48A9
:10394000FDF78CFC96480068132201689748FDF744
:1039500071FC97A19948FDF781FC914800681322FA
:1039600041689648FDF766FC95A19748FDF776FCFF
:103970008B480068132281689348FDF75BFC93A194
:103980009448FDF76BFC8648006813220169914852
:10399000FDF750FC824800688FA1426993481AF0F5
:1039A00055FD8248FDF731FC1A2805D92E207F49A4
:1039B00008764876002088768048FDF726FC1A288D
:1039C00005D92E207D4908764876002088767E48E5
:1039D000FDF71BFC1A2805D92E207B49087648766E
:1039E000002088767B48FDF710FC1A2805D92E2088
:1039F0007849087648760020887600E0CAE07C485E
:103A0000006800286CD14FF2DE700DF0CFF9D223A0
:103A100064224FF48771232009F024FA00200DF06E
:103A2000C5F9D023622240F20D11242009F03CFA9E
:103A3000FE215A48006805F0E3F8FF215748006866
:103A400005F0DEF8202219216A48FDF7A2FB0020CC
:103A5000684948760DF064F9664A10214F480068BD
:103A60000FF0D3F9634A11214C4800680FF0CDF9EB
:103A7000604A3121494800680FF0C7F95D4A322198
:103A8000464800680FF0C1F95A4A3321434800689C
:103A90000FF0BBF900200DF043F9444A10213F48D4
:103AA00000680FF0B2F9454A11213C4800680FF058
:103AB000ACF9454A3121394800680FF0A6F9454A6A
:103AC0003221364800680FF0A0F9484A33213348C4
:103AD00000680FF09AF94FF6FF700DF021F959E0E8
:103AE0004FF2DE700DF062F9D22364224FF4877139
:103AF000232009F0B7F900200DF058F9D0236222F5
:103B000040F20D11242009F0CFF94FF6FF700DF0AF
:103B100007F900200DF04AF9002430E03648C0696A
:103B2000A04202D147F6FF7001E04FF6FF70064653
:103B300004EB8410314A126802EB4000411C2D480E
:103B400009F077FF2B48FDF760FB1A2806D32E20DB
:103B500028498875C875087600204876284830F8C6
:103B6000141032460D48006814F07BFC244830F8ED
:103B70001410204A094800680FF047F9641C1E48D9
:103B80004069A042CAD84FF6FF700DF0C9F8002076
:103B90000DF00CF970BD0000E0020020D002002002
:103BA000740200205469746C653A2000D0700020C3
:103BB0004172746973743A2000000000EB700020B9
:103BC000416C62756D3A20000671002047656E7287
:103BD000653A20002171002053616D706C652052A0
:103BE0006174653A20256420487A00003C71002009
:103BF0007C0200205771002048020020C8020020EB
:103C0000C2D906087CB52B488068012851D12A48C2
:103C10000068C08A11284CD12849294800F0F4FED8
:103C20002848006825490968884242D0234800682E
:103C30003C2190FBF1F201FB120420480068B0FB2C
:103C4000F1F523462A4620A168461AF0FFFB6A4692
:103C50001221194800680FF0D8F8194800683C2173
:103C6000B0FBF1F201FB120415480068B0FBF1F55E
:103C700023462A4614A168461AF0E8FB6A46152135
:103C80000D4800680FF0C1F80C48006864214843F3
:103C90000B490968B0FBF1F0C4B222462121064865
:103CA000006814F041FC20B12121034800680FF0A6
:103CB000C7F87CBD48020020D0020020B4020020DA
:103CC000B0020020B8020020253032643A2530329C
:103CD0006400000010B51321194800680AF0FEF8CE
:103CE0001849C8600846C06817490978884225D035
:103CF0001449C968C8B201F07BF91248C168134879
:103D0000006861F313101149086006200DF066FC8D
:103D10000C48C06890B100200A49086108468068D4
:103D200001280BD10E200A4908600A48006828B112
:103D3000002364220748006846F0FAFF10BD000027
:103D4000D002002048020020A4020020E40200204B
:103D500070020020440200202DE9F04104460F4685
:103D60001646002514B1608D0A2802D10020BDE856
:103D7000F08120203BF006FE0546BDB16C601222AA
:103D8000394605F1080009F065F9EE61284603F0AF
:103D900029FE618D04F12C0040F82150608D401CFB
:103DA0006085608D012801D1E16A88760120DEE717
:103DB0002DE9FF5F81460F4614469846DDF838A08E
:103DC000002500260020039083460290404602F022
:103DD0007FFF00285DD10F98012817D1E11704EB70
:103DE00091718910A4EB810101EB410202EB0111F9
:103DF0004FF49672A2EB81018DB2E11704EB917141
:103E00008910C1EB81112A318EB215E0032094FB99
:103E1000F0F100FB1140401C00EB400101EB0010F1
:103E20004FF49671A1EB800085B2032094FBF0F073
:103E3000C0EB80102A3086B2109832231A464146D1
:103E4000009038460DF000FD83464B465A463146F9
:103E5000284600F023F80020009001230246514636
:103E60000190781C0DF01AFD02905046FDF7CDF937
:103E7000C0F107004FF6FF7101EA8000039006F1E0
:103E8000310291B2039AAA1A90B24B46029A00F0FC
:103E900005F8584604B0BDE8F09F00002DE9FC4746
:103EA00005460E4614461F46788BFF287EDA4FF0F3
:103EB0000008C2460020009001908C48008885428E
:103EC00003DC8B480088864202DD0020BDE8FC87C9
:103ED000ADF80050ADF80660207C042811D185496A
:103EE000616160680188218090F83510012903D054
:103EF00090F83510022903D1ADF80060ADF80650F6
:103F0000E4E0207C07283AD1A5F1160080B2ADF894
:103F1000020006F1160080B2ADF804007648606138
:103F20000098A0600198E060798B07F1200040F8CC
:103F30002140788B401C7883D4F804A0BAF8100094
:103F400020809AF80800C0B900200DF061FC81467D
:103F5000D9F80480C8F80C40012088F808006748A8
:103F6000C8F804006648C8F80000F1B2A5F11602CE
:103F700090B23B464A46FFF791FF0120A6E7207C1E
:103F8000012802D0207C05281AD1A5F1080080B2B2
:103F9000ADF8020006F11A0080B2ADF80400207CF2
:103FA000012807D157496161606800E09CE0018801
:103FB00021808BE05449616160680188218085E03F
:103FC000207C022810D1514961616068016809882C
:103FD0002180A5F1140189B2ADF8021006F1140197
:103FE00089B2ADF8041071E0207C03280FD1484954
:103FF0006161606801882180A5F1140189B2ADF882
:10400000021006F1140189B2ADF804105EE0207CC4
:1040100006280FD13F4961616068018821800189CC
:10402000691A89B2ADF80210817A314489B2ADF8CB
:1040300004104BE0207C082836D137496161606864
:1040400001882180017F49B9291F89B2ADF802108A
:1040500006F1120189B2ADF8041024E0017F0129B4
:104060000ED1ADF80050A5F1120189B2ADF80210E1
:1040700006F1740189B2ADF80410ADF8066012E0E3
:10408000017F02290FD1ADF80050A5F1120189B2CC
:10409000ADF8021006F1780189B2ADF80410311DB7
:1040A00089B2ADF8061011E0207C092805D11B4922
:1040B000616160680188218008E0207C0A2805D1C0
:1040C0001749616160680188218000BF0098A06085
:1040D0000198E060798B07F1200040F82140788B4F
:1040E000401C78830120F1E60020EFE62E09002035
:1040F0002C090020257B0108035F010876D50908FB
:1041000080D90908255C0108118101085F7C01083C
:104110003D5E0108F17A0108097D01085974010822
:10412000716001082DE9F0410446884617460025D4
:10413000002614B160880A2802D10020BDE8F08171
:1041400028203BF01FFC054605B32C601422414695
:1041500005F10C0008F07EFF6F6218203BF012FCA6
:104160000646A6B1756002203074284603F0B2FC02
:104170006188201D40F821606088401C6080608854
:10418000012808D16168496881F8200003E02846C9
:1041900025F01CFC00253046D0E72DE9F04F8BB010
:1041A00080460C4691461D46DDF850B0DDF858A01B
:1041B000082C03DD00200BB0BDE8F08F14231A4655
:1041C0004946E01CCDF800A00DF03EFB0646C4EBCE
:1041D000C40000EB041000F11F01434632464FF4C7
:1041E0009B70FFF75BFE2322294602A8FDF701F82A
:1041F0002846FDF70AF8232807D92E208DF8290034
:104200008DF82A0000208DF82B000020009001235B
:10421000024602A9019004F10B000DF03FFB074696
:10422000C4EBC40000EB041000F1260143463A46FB
:1042300040F21D10FFF732FE3046BCE770B5044671
:10424000B948007800287DD1B84800880B30B84ABA
:104250001278801A81B21F22B648006802F012FD5F
:1042600000200CF0A3FD60236822CD21572008F028
:104270001BFE60236822D221522008F0F3FD4FF686
:10428000FF700CF093FD5E236622D121532008F0CD
:10429000E9FD4FF2DE700CF089FD5C236522D02130
:1042A000542008F001FE01209F490870002C7DD1A8
:1042B0009E49098801EB81119F4A1144481C9FA126
:1042C0001CF04AF908BB9949098801EB81119A4A07
:1042D0001144481C9AA11CF03FF9B0B993490988D0
:1042E00001EB8111944A1144481C96A11CF034F949
:1042F00058B98E49098801EB81118F4A1144481C35
:1043000091A11CF029F9002838D0904A90A15020A2
:104310000DF01AFA054687482A4658210368CE2030
:10432000FFF7BCFD5021834800680EF089FD8B4AE1
:104330008BA151200DF008FA05467E482A467821C7
:10434000036800E0EEE0CE20FFF7A8FD5121794898
:1043500000680EF075FD854A85A152200DF0F4F934
:10436000054674482A4698210368CE20FFF796FD3B
:104370005221704800680EF063FDD3E06B49098854
:1043800001EB81116C4A1144481C7CA11CF0E4F83B
:1043900058B96649098801EB8111674A1144481CE4
:1043A00077A11CF0D9F8002838D000E05BE0674A1C
:1043B00074A150200DF0C8F905465E482A465821E0
:1043C0000368CE20FFF76AFD50215A4800680EF0BE
:1043D00037FD624A62A151200DF0B6F905465548F5
:1043E0002A4678210368CE20FFF758FD5121514815
:1043F00000680EF025FD5D4A5DA152200DF0A4F984
:1044000005464C482A4698210368CE20FFF746FD12
:104410005221484800680EF013FD83E04F4A50A136
:1044200051200DF091F9054642482A46582103686B
:10443000CE20FFF733FD51213E4800680EF000FD0D
:104440004A4A4BA152200DF07FF9054639482A46C9
:1044500078210368CE20FFF721FD522135480068FE
:104460000EF0EEFC5EE0022C24D1494A49A1502016
:104470000DF06AF905462F482A4658210368CE20D8
:10448000FFF70CFD50212B4800680EF0D9FC374A8D
:1044900037A151200DF058F9054626482A467821C3
:1044A0000368CE20FFF7FAFC5121224800680EF085
:1044B000C7FC37E0012C35D1354A36A150200DF02C
:1044C00043F905461B482A4658210368CE20FFF7CA
:1044D000E5FC5021174800680EF0B2FC304A31A1CB
:1044E00051200DF031F9054612482A46782103681B
:1044F000CE20FFF7D3FC51210E4800680EF0A0FC3F
:104500001A4A1BA152200DF01FF9054609482A46F8
:1045100098210368CE20FFF7C1FC522105480068AE
:104520000EF08EFC70BD000082080020BE08002046
:104530007D080020A40800209A3D0020626D7000D4
:10454000424D50006A7067004A50470059240108E4
:104550002020446973706C6179202000A9890008CB
:10456000202044656C65746520202000F56B0008F0
:10457000202043616E63656C202020007761760007
:1045800057415600202020506C61792020202000C7
:10459000D9300108202053656C6563742020200009
:1045A000BDB90008202042726F777365202020007B
:1045B00070B504460D460D4800EB041122460C4828
:1045C000FCF749FDA5F1320000B24000142190FB38
:1045D000F1F000B2054901EB04118881034800EBBA
:1045E000041122460248FCF71DFD70BD086E002034
:1045F000DC6C002010B504460C490D48FCF778F936
:10460000C4F1320000B200EB40008000642190FB56
:10461000F1F0083001218140044801600448FCF7B2
:1046200044F902490248FCF758F910BD380200204D
:10463000586E002010B504461848007802282BD187
:10464000092C27D2DFE804F02605060B10151A1EE8
:10465000220020E0A62140200DF000FA1BE04021BE
:10466000A0200DF0FBF916E0402108460DF0F6F908
:1046700011E0C02140200DF0F1F90CE018200DF000
:10468000B7F908E040200DF0B3F904E058200DF030
:10469000AFF900E000BF00BF10BD00000C04002017
:1046A00070B505460E4614461948007818B11848EA
:1046B0000078042804D1042015490870FF2070BD3B
:1046C000012C02D0022C20D112E0114800780128E0
:1046D00003D00F480078032808D13146284610F04F
:1046E00055FA02200A4908700020E8E7FF20E6E7B3
:1046F00007480078022801D0FF20E0E710F06EFAAA
:104700000320034908700020D9E7FF20D7E7000005
:10471000000A002070B505460C461646374800785A
:1047200018B136480078052804D1052033490870AF
:10473000FF2070BD012E04D0022E47D0032E5BD186
:1047400030E02E480078012807D02C480078042853
:1047500003D02A48007802280BD10CB90020E8E7E2
:104760006108284600F03EFD022024490870002020
:10477000DFE722480078032812D10CB90020D8E7DF
:1047800062082946012006F09CFD20B105201B4946
:104790000870FF20CDE70220184908700020C8E704
:1047A000FF20C6E715480078022801D0FF20C0E7A7
:1047B000022006F0A5FD20B1052010490870FF2059
:1047C000B7E704200D4908700020B2E70B480078D5
:1047D000022801D0FF20ACE762082946002006F03D
:1047E00070FD20B1052005490870FF20A1E70320D6
:1047F0000249087000209CE7FF209AE7380A002051
:1048000008B50020009038E00023642269461B4868
:10481000006846F0CEF901282FD119480068C08AF7
:1048200011282AD117480078A8B1502116480068ED
:1048300004F0E6F951211448006804F0E1F952212E
:104840001148006804F0DCF900200E4908700C489B
:1048500000680EF0E9FA0D48406870B90B488068AE
:1048600001280AD10548006838B19DF80000FEF71C
:10487000ADFD9DF80000FFF737F8C5E744020020C2
:10488000D002002080020020E00200204802002028
:1048900010B500200D4908700D4841680020884778
:1048A00008B1022010BD0B48406810B109494868A2
:1048B00080472021074804F02BF8074823F095F99A
:1048C00000200649086000BFECE700000C02002051
:1048D000140A0020AC6C002050690020FC0100206C
:1048E00010B500201C4908701C48006830B11B48F6
:1048F000006845F091FA00201849086018480068DF
:1049000030B11748006845F0ADFA0020144908603E
:104910001448006830B1134800683CF039F90020B1
:10492000104908601048006830B10F4800683CF03A
:104930002FF900200C4908600C48006830B10B4882
:1049400000683CF025F9002008490860002008496B
:1049500008600849086010BD0C0200202C020020ED
:1049600008020020E4010020E8010020EC01002002
:10497000F4010020F001002010B515480068154929
:10498000086015480068C860144800688861002005
:104990000EE04FF4005100EB40020E4B03EB82029D
:1049A0005160002100EB400203EB82029160401C49
:1049B0000328EED300200A4908600A490860002451
:1049C00002E000F09FFA641C032CFADB10BD00002B
:1049D000E40100202C690020E8010020EC01002007
:1049E000F4010020F0010020004870471002002070
:1049F0000148C068704700005069002001480078F5
:104A0000704700000C02002070B504460D460B48AC
:104A1000006A38B1FFF7ECFF06460848016A3046E5
:104A2000884720600548406A28B1054A9068034AD3
:104A3000516A88472860002070BD0000AC6C0020DF
:104A4000506900201FB500203B4908703B490860B1
:104A50003B4908683BA1FCF701FC3949486839A18A
:104A6000FCF7FCFB3649886836A1FCF7F7FB3449B4
:104A7000C86834A1FCF7F2FB3149086931A1FCF7A1
:104A8000EDFB00202E4948617621304803F040FFBD
:104A90004FF400502E4908603CF0A6F82D490860FC
:104AA0004FF400503CF0A0F82B4908604FF4005040
:104AB0003CF09AF8294908602648006828B1264841
:104AC000006810B10846006870B9224800683CF0E0
:104AD0005FF8214800683CF05BF8204800683CF033
:104AE00057F8012004B010BD1D48006880B90322AA
:104AF0000021012046F036F8194908600846006890
:104B000030B100231A4619461548006846F010F9DE
:104B10001448006868B90020124A0223CDE9012038
:104B20000093039003464FF400720FA1104846F023
:104B3000C5F90020D6E700000C020020FC0100208F
:104B4000100200202020202000000000AC6C00207B
:104B5000E0010020E4010020E8010020EC01002039
:104B60002C02002008020020415544494F5F5000AC
:104B7000B94F0008F0B5A3B004460E469A4908683C
:104B80009AA1FCF76BFB9849486898A1FCF766FB73
:104B90009549886895A1FCF761FB9349C86893A182
:104BA000FCF75CFB9049086990A1FCF757FB0020DB
:104BB0008D4948618F48007810B1012023B0F0BDC5
:104BC000012221468C4823F053F908B10120F5E772
:104BD0008A4BC8228A49884823F080FA2046FCF78D
:104BE00014FB401E205C47B23946864803F090FE15
:104BF0008448C06A844908608248006840B181489E
:104C0000824A834903687E48984708B10220D5E765
:104C10007C48806928B17B4877498269724890470F
:104C200015E0214602A808F004FF02A8FCF7EDFAFF
:104C3000132807D92E208DF819008DF81A000020AE
:104C40008DF81B006849086802A9FCF707FB6D484E
:104C5000C06920B16B49C86980476E4908606D48DA
:104C600000686149486101206B4908606B48002277
:104C70003146036867480068984708B103209DE7FC
:104C80006648C169664888476648006840F48050B5
:104C900064490860012064498860002000E0401CED
:104CA000B0F5967FFBDB5B4801686048FCF7A1F933
:104CB00000225F495D48FCF7CEF95D490C310820C0
:104CC0000CF0F6FA01205A490860002048604FF4C1
:104CD0007A708860084680898881012210315348A3
:104CE000FCF7B9F952491C3109200CF0E1FA032014
:104CF0004F49086140F6B8314D4841614FF4FA61BF
:104D00008161818B8183022200F120014748FCF7F9
:104D1000A2F947492C310A200CF0CAFA0320444971
:104D2000086342F6E0614248416349108163818D26
:104D30008187032200F130013C48FCF78CF93C49A3
:104D40003C310B200CF0B4FA02203949086444F2DB
:104D50005061374841644FF4FA618164818FA0F853
:104D60004C10002001900BE03148019900EB011537
:104D700029462E48019AFCF755F90198401C0190EC
:104D800001980528F0D32748006840F48050254951
:104D90000860012024498860002000E0401CB0F534
:104DA000967FFBDB1B4801682248FBF78CFD2249FC
:104DB0002048FBF79DFD69460C200CF079FA00981D
:104DC000C0F1320000B200EB40008000642190FB93
:104DD000F1F0083001218140174801600146154873
:104DE000FBF77BFD0020E9E610020020756E6B6E7C
:104DF0006F776E000C020020506900200002002036
:104E0000786B0020AC6C0020E0010020794F000896
:104E1000D188000828020020FC010020140A00208C
:104E2000055000083038024000300240DC6C0020A1
:104E3000086E0020586E00203802002010B50D4882
:104E40000078052812D2DFE800F003060704050009
:104E500000BF00BF00BF09E00320064908700648F4
:104E60000222002183680846984700BF00BF002047
:104E700010BD00000C020020140A002070B504468A
:104E80000D461C480078052831D2DFE800F0030405
:104E90002F182E0000BF29462046FFF76BFE08B1F1
:104EA000012070BDFFF768FD134A51681068134A6E
:104EB00093680122984702200E49087017E00220EB
:104EC0000C4908700E4A126802EB42020A4E06EBC9
:104ED000820251680A4A126802EB420256F8220026
:104EE000064A93680122984701E000BF00BF00BF57
:104EF0000020D6E70C0200202C690020140A0020B4
:104F0000F401002010B51948006800EB4000184972
:104F100001EB8000806830BB1448006800EB400063
:104F20000A4652F820101348026800200DF05EFB7C
:104F30000E49096801EB41010D4A02EB810148600D
:104F400001200A49096801EB410102EB81018860F7
:104F500006480068022801D3002002E003480068E8
:104F6000401C02490860002010BD0000F001002034
:104F70002C690020E001002010B5044621460248BB
:104F800022F04DFE10BD000050690020014908705C
:104F9000704700000C02002010B501200449087081
:104FA000044802220021836808469847002010BD6B
:104FB0000C020020140A002000231A4619460A4851
:104FC000006845F0F6FD00BF00233222194606486E
:104FD000006845F0EEFD0128F6D10448007802286B
:104FE000F2D1FFF78FFFEFE72C0200200C02002028
:104FF00010B504460248C1682046884710BD00002D
:10500000140A00202DE9F04104460D4616462748B3
:105010000078022847D100202549096801EB4101A9
:10502000244A02EB8101886021480068022801D3EC
:10503000002002E01E480068401C1D490860084628
:10504000006800EB40001B4901EB8000806848B914
:105050001748006818B116480068401E00E002209A
:1050600013490860124A126802EB4202114F07EB23
:10507000820251680E4A126802EB420257F822007F
:105080000D4A9368012298470C48006858B10023E4
:105090000B4A19460948006845F0AFFE0848006809
:1050A00008B144F0B1FEBDE8F08100000C02002020
:1050B000F40100202C690020140A00202C0200209A
:1050C0003002002008B5012148050DF03FFB00210A
:1050D000224803F07BFA214803F084FA002020499B
:1050E000086020484860002088604020C8604FF673
:1050F000FE700861002048614FF4806088614000C4
:10510000C861C0000862002048624FF40030886225
:105110000420C862032008630020486388630F48A6
:1051200003F090FB012210210C4803F06DFB0122DB
:1051300002210C480C380FF03BF90F208DF80000CD
:105140000C208DF8010000208DF8020001208DF860
:10515000030068460CF0B2FA08BD0000706002401F
:10516000D89B00200C38004070B504460D4616460A
:10517000B4B902F03DF8154988681549096802F08C
:1051800047F80021134803F021FA00BF114803F04B
:10519000E0FA0028FAD110490E4803F0E3F914E0D0
:1051A0000E488560066101460A4803F04BFB012169
:1051B000084803F00BFA0A48008810F4806F04D105
:1051C000012107481C3809F009FB70BD149C002020
:1051D0005C0A00207060024035000020D89B00204F
:1051E0001C38004070B505460C4600210E4803F0FF
:1051F000EDF90E490C4803F0B5F90D4885600461DE
:105200000146094803F01EFB0121074803F0DEF9BF
:105210000848008810F4806F04D1012105481C382B
:1052200009F0DCFA70BD0000706002402000002030
:10523000D89B00201C38004010B500210A4803F01C
:10524000C5F90A49084803F08DF900BF064803F084
:1052500080FA0028FAD101F0CBFF0549886805499A
:10526000096801F0D5FF10BD7060024039000020D0
:10527000149C00205C0A00202DE9F0479EB00646F1
:105280000F461CAB0E2201A9304622F027FF20B1A9
:105290004FF0FF301EB0BDE8F0879DF804008DF898
:1052A00060009DF805008DF861009DF860009DF894
:1052B000611040EA0120A0F59A41423902D04FF036
:1052C000FF30E7E7BDF80E001B901CAB04221DA9C0
:1052D000304622F003FF10B14FF0FF30DAE71D989F
:1052E0000C2847D11CAB082201A9304622F0F6FE5B
:1052F00010B14FF0FF30CDE79DF804009DF8051088
:1053000000EB012080B2ADF830009DF806009DF85A
:10531000071000EB012080B2ADF832009DF80800C4
:105320009DF8091000EB012080B2ADF834009DF823
:105330000A009DF80B1000EB012080B2ADF836009A
:10534000BDF83000EB490860BDF832004860BDF898
:105350003600C8600846C068082806DC0846017B9D
:1053600001208840E349C86102E00020E149C861AA
:105370000024B1E01CAB242201A9304622F0AEFE8D
:1053800010B14FF0FF3085E79DF804009DF805103F
:1053900040EA01209DF8061040EA01409DF8071000
:1053A00040EA01600F909DF808009DF8091040EA5E
:1053B00001209DF80A1040EA01409DF80B1040EAD8
:1053C000016010909DF80C009DF80D1040EA01203E
:1053D000ADF844009DF80E009DF80F1040EA012042
:1053E000ADF846009DF810009DF8111040EA01202C
:1053F0009DF8121040EA01409DF8131040EA016048
:1054000012909DF814009DF8151040EA01209DF8B7
:10541000161040EA01409DF8171040EA0160139011
:105420009DF818009DF8191040EA01209DF81A1007
:1054300040EA01409DF81B1040EA016014909DF87D
:105440001C009DF81D1040EA01209DF81E1040EA46
:1054500001409DF81F1040EA016015909DF8200062
:105460009DF8211040EA01209DF8221040EA0140F9
:105470009DF8231040EA016016909DF824009DF8E5
:10548000251040EA01209DF8261040EA01409DF8D1
:10549000271040EA0160179096490F98086010980D
:1054A0004860BDF84600C8601698C8610846C069E3
:1054B000B0F5807F02DD0020C8610CE08D48C06936
:1054C00048B98C48C068082805DC8A48017B01205F
:1054D00088408849C861129C002086498861012063
:1054E00088600846C068082802DA6FF00100D1E63B
:1054F000804A116802F11403D068103202F016FAE3
:105500007C48006940F6FC71884202DD6FF00100C2
:10551000C0E67848C068102825D14FF4F848032C1D
:1055200017D11CAB04226946304622F0D7FD08B1E2
:10553000201FAFE69DF800009DF8011040EA012011
:105540009DF8021040EA01409DF8031040EA01680E
:1055500000BFB8F5F84F05D16648806940F00800F3
:105560006449886100BF032C03D014B16FF00100BF
:1055700090E660480068A02803DB5E484068782811
:1055800002DA4FF0FF3085E630461B9922F047FBE8
:10559000584845680120584908805849088012E059
:1055A000544800685549098890FBF1F0544909882E
:1055B000884200DC0BE0514800884FF6FF7101EA99
:1055C00040004E4908804D480088FF28E8DD00BFB4
:1055D00012E0484840684849098890FBF1F0494981
:1055E0000988884200DC0BE0434800884FF6FF71D1
:1055F00001EA4000404908803F480088FF28E8DD74
:1056000000BF3E4909880F98B0FBF1F000F23F104F
:10561000C0F34F003C490880374909881098B0FB17
:10562000F1F0EF30C0F34F0038490880334800886C
:10563000012803D130480088012804D0334800886D
:10564000401D324908802D4909880F98B0FBF1F0C0
:105650001FFA80F8284909881098B0FBF1F000F093
:10566000FF0943464A4628480188284800880BF02D
:105670006BFB41F2080103200BF051FC224801882A
:10568000224800880BF054FB0BF044FC19490869D0
:105690003AF078F9824623E01748008895FBF0F14C
:1056A00000FB1150A8B913481CAB514602693046A3
:1056B00022F014FD28B1504624F088F94FF0FF3055
:1056C000E8E50E4802783B4651460A4803F04EFE94
:1056D00006E0084AB06812698118304622F09FFA45
:1056E000681E051ED8DA504624F070F90BF066FBF0
:1056F0000020CFE58C730020600700205E070020AB
:10570000580700205A070020620700206407002085
:1057100070B505460C4608480560204600F092F832
:1057200000BF054800680028FBD100214FF08040F1
:1057300013F081F970BD0000D801002010B50020E1
:105740000FF0A8FA14A000F08DFC07F0C2FB1AA01D
:1057500000F088FC07F070FF1DA000F083FC07F04C
:105760004BFA23A000F07EFC0EF058FE28A000F0BB
:1057700079FC012188040CF0E9FF2BA000F072FCF9
:1057800001200FF0BFFA012140200CF0FFFF0120A3
:105790000DF07CF9002010BD5B53595354454D5D0D
:1057A00020446174612052414D20496E6974203A51
:1057B000204F4B2E000000005B53595354454D5D64
:1057C000204C434420496E6974203A204F4B2E00F0
:1057D0005B53595354454D5D20546F756368736333
:1057E0007265656E20496E6974203A204F4B2E0019
:1057F0005B53595354454D5D204A6F797374696307
:105800006B20496E6974203A204F4B2E0000000037
:105810005B53595354454D5D205352414D20496EC1
:1058200069743A204F4B2E005B53595354454D5DDC
:1058300020424B505352414D20496E6974203A200A
:105840004F4B2E003EB5044600214FF0804013F030
:10585000F2F800220121880713F0D3F9022C02D1BB
:105860000B20019004E0012C02D142F6DF60019090
:105870000520ADF800000020ADF80800ADF80200EA
:1058800069464FF0804013F0D1F90121880713F0E9
:10589000CFF80121880713F0BFF8012211469007C5
:1058A00013F0AFF90121880713F0C5F83EBD0000E1
:1058B0000BF05AFE012114480BF05AFC13A000F023
:1058C000D1FB07F00BFE0BF073FD07F057F919E061
:1058D000164801680068401C144A10600A290CD957
:1058E00000201146086007F041F906F019FE07F0A4
:1058F000F9FA07F025F907F0A9FE0BF0E9FC0A20F8
:1059000044F094FAE4E700002C0400205B53595360
:1059100054454D5D2053797374656D206D6F6475CA
:105920006C65732061646465642E0000C80100200A
:10593000002202600A7802604B78026802EB0322C0
:1059400002608B78026802EB03420260CB78026847
:1059500002EB03620260704700BFFEE710B50D481E
:105960000078012815D10B484078401E10F0FF0048
:10597000084948700DD108A20921114800680DF0AE
:1059800044FA012002F030FD00200E490870014960
:10599000087010BD58040020202020202020202046
:1059A00020202020202020202020202020202020F7
:1059B0002020202020202020202020200000000067
:1059C0004C040020290400202DE9F04FA7B0074621
:1059D0004FF6FF7007F0B4FA1F2007F05AFB402F74
:1059E00004D0412F3FD0422F7ED1F9E04FF48660A2
:1059F00039F0C8FFFE4908604021FD48006802F008
:105A000011F8FC4832231A46FB49009005200BF0A0
:105A10001BFF8046F648424628210368B920FEF75E
:105A20003DFAF64B0022F6A1F148006807F0D8FADB
:105A3000F54B0122F5A1EE48006807F0D1FAF64BCC
:105A40000222F6A1EA48006807F0CAFAF54B0322E1
:105A5000F5A1E748006807F0C3FAF5A1E44800683B
:105A600007F0DEFA85E200F089FAF44902200BF033
:105A70001FFC4FF4866039F085FFF1490860412131
:105A8000EF48006801F0CEFFEE4AEFA101200BF0D5
:105A90005BFE8346EA485A46D42103689620FEF707
:105AA000FDF9EC4AECA102200BF04EFE8246E448E0
:105AB0005246D4210368E620FEF7F0F9E9A1E04858
:105AC000006807F0ADFAEB49DD480068C0F828141B
:105AD000E949DB480068C0F82C14E84AE8A1032033
